{
  "transactions": [
    {
      "hash": "0x331b17d44320ea4bffb39679e4b1740694851e023770cd861401d36661a404ad",
      "transactionType": "CALL",
      "contractName": null,
      "contractAddress": "0x790d846ad311772e311b1c7525ba07a799535dd2",
      "function": "dispatchAttestation(uint256,bytes)",
      "arguments": [
        "0",
        "0x307830"
      ],
      "transaction": {
        "from": "0xb77c956f65aabec5e8e0ceeaa24a89ef2cc62d5a",
        "to": "0x790d846ad311772e311b1c7525ba07a799535dd2",
        "gas": "0x35826",
        "value": "0x0",
        "input": "0xe5c6d6960000000000000000000000000000000000000000000000000000000000000000000000000000000000000000000000000000000000000000000000000000004000000000000000000000000000000000000000000000000000000000000000033078300000000000000000000000000000000000000000000000000000000000",
        "nonce": "0x17",
        "chainId": "0xafa"
      },
      "additionalContracts": [],
      "isFixedGasLimit": false
    }
  ],
  "receipts": [
    {
      "status": "0x1",
      "cumulativeGasUsed": "0x26bd7",
      "logs": [
        {
          "address": "0x438d749bfad69a368d85811155d6bb0def5f7a11",
          "topics": [
            "0x769f711d20c679153d382254f59892613b58a97cc876b249134ac25c80f9c814",
            "0x000000000000000000000000790d846ad311772e311b1c7525ba07a799535dd2",
            "0x0000000000000000000000000000000000000000000000000000000000014a34",
            "0x00000000000000000000000075b42620c4aa52dbd66757fe54a546bb856c4104"
          ],
          "data": "0x000000000000000000000000000000000000000000000000000000000000002000000000000000000000000000000000000000000000000000000000000000cd030000000000000afa000000000000000000000000790d846ad311772e311b1c7525ba07a799535dd200014a3400000000000000000000000075b42620c4aa52dbd66757fe54a546bb856c4104000000000000000000000000000000000000000000000000000000000000000000000000000000000000000000000000000000000000000000000000000000400000000000000000000000000000000000000000000000000000000000000003307830000000000000000000000000000000000000000000000000000000000000000000000000000000000000000000000000",
          "blockHash": "0x920b64c30e6608266be39b997b0890b89873eb347b5a2a62c2d19b65175d3f78",
          "blockNumber": "0x8e8e81",
          "transactionHash": "0x331b17d44320ea4bffb39679e4b1740694851e023770cd861401d36661a404ad",
          "transactionIndex": "0x0",
          "logIndex": "0x0",
          "removed": false
        },
        {
          "address": "0x438d749bfad69a368d85811155d6bb0def5f7a11",
          "topics": [
            "0x788dbc1b7152732178210e7f4d9d010ef016f9eafbe66786bd7169f56e0c353a",
            "0x054b3d0d4f1b403f7d72d44d6387256b0b2f08aeb006c4b649a75db197bf6f5b"
          ],
          "data": "0x",
          "blockHash": "0x920b64c30e6608266be39b997b0890b89873eb347b5a2a62c2d19b65175d3f78",
          "blockNumber": "0x8e8e81",
          "transactionHash": "0x331b17d44320ea4bffb39679e4b1740694851e023770cd861401d36661a404ad",
          "transactionIndex": "0x0",
          "logIndex": "0x1",
          "removed": false
        },
        {
          "address": "0x4e65d8b34e115450b54adc11b144c9cb5c8bf7be",
          "topics": [
            "0x253a3a04cab70d47c1504809242d9350cd81627b4f1d50753e159cf8cd76ed33"
          ],
          "data": "0x054b3d0d4f1b403f7d72d44d6387256b0b2f08aeb006c4b649a75db197bf6f5b0000000000000000000000000000000000000000000000000000000000000000",
          "blockHash": "0x920b64c30e6608266be39b997b0890b89873eb347b5a2a62c2d19b65175d3f78",
          "blockNumber": "0x8e8e81",
          "transactionHash": "0x331b17d44320ea4bffb39679e4b1740694851e023770cd861401d36661a404ad",
          "transactionIndex": "0x0",
          "logIndex": "0x2",
          "removed": false
        },
        {
          "address": "0x790d846ad311772e311b1c7525ba07a799535dd2",
          "topics": [
            "0x40df3640decb6abcd60842b08a973496299eed50d4e9a9933b2840a58eb57671"
          ],
          "data": "0x0000000000000000000000000000000000000000000000000000000000000000000000000000000000000000000000000000000000000000000000000000004000000000000000000000000000000000000000000000000000000000000000800000000000000000000000000000000000000000000000000000000000000000000000000000000000000000000000000000000000000000000000000000004000000000000000000000000000000000000000000000000000000000000000033078300000000000000000000000000000000000000000000000000000000000",
          "blockHash": "0x920b64c30e6608266be39b997b0890b89873eb347b5a2a62c2d19b65175d3f78",
          "blockNumber": "0x8e8e81",
          "transactionHash": "0x331b17d44320ea4bffb39679e4b1740694851e023770cd861401d36661a404ad",
          "transactionIndex": "0x0",
          "logIndex": "0x3",
          "removed": false
        }
      ],
      "logsBloom": "0x00000000000204808000000000000000000000000000000000000000002000000000000000000000000000002001000000000000000000040004000000000800000000000000000080000000000000000000080000800000000000000000100000000000000000000000028000000000000000000200000000000000000080000000000000000000000000000000000000000000000000000000000000000000000000000008000000000000000000000208200000000000008000000000000000001000000000000000000000000000000000004000000000000000000000000010400020000000000000000000004001000200000000000000000000000000",
      "type": "0x2",
      "transactionHash": "0x331b17d44320ea4bffb39679e4b1740694851e023770cd861401d36661a404ad",
      "transactionIndex": "0x0",
      "blockHash": "0x920b64c30e6608266be39b997b0890b89873eb347b5a2a62c2d19b65175d3f78",
      "blockNumber": "0x8e8e81",
      "gasUsed": "0x26bd7",
      "effectiveGasPrice": "0xbfb0440",
      "from": "0xb77c956f65aabec5e8e0ceeaa24a89ef2cc62d5a",
      "to": "0x790d846ad311772e311b1c7525ba07a799535dd2",
      "contractAddress": null,
      "l1Fee": "0x183f3fd102"
    }
  ],
  "libraries": [],
  "pending": [],
  "returns": {},
  "timestamp": 1726952311,
  "chain": 2810,
  "commit": "e3e1ff1"
}