{
  "transactions": [
    {
      "hash": "0xe11cb9ab42fa7beccc1e7b67da394ef166b0c34244cb074b5646f4c885b09ec4",
      "transactionType": "CALL",
      "contractName": null,
      "contractAddress": "0x4e4af2a21ebf62850fd99eb6253e1efbb56098cd",
      "function": "attest((uint64,uint64,uint64,uint64,address,uint64,uint8,bool,bytes[],bytes),string,bytes,bytes)",
      "arguments": [
        "(1, 0, 0, 0, 0xB77C956F65AabEC5e8E0CeEAA24a89Ef2CC62D5A, 0, 0, false, [], 0x0000000000000000000000000000000000000000000000000000000000000020000000000000000000000000000000000000000000000000000000000000001d5468697320697320612073616d706c65206174746573746174696f6e2e000000)",
        "user123",
        "0x",
        "0x2897864a946c0d6c516626273dfaac3213470b8abfba95ad255c8c0d6dbe7cb50784518dbb2fed7650a9b7a3473bdccc4826e0b05158190ed0085378248e93120000000000000000000000000000000000000000000000000000000000000060000000000000000000000000000000000000000000000000000000000000010000fd8e4629017fef831c14aa134d9cf9fb1614cd18b24152f30c2e63b9550532051ee84c6d9c2395a88c32b7ca40824df1d92c96f9c3bbc43ed5e88855ef47780d77987f0d3aa536c97949b2ad25390ed89073d842b0b1b049ce198f604c94802dc2eb92b7966a81454c6f1420fb101bbf185fc5f30cb2162e95f8090a3ad1b9229c31d4c89b447e95a82a7b7bcc7209ecac924c018fd7f7429777401fa12fe81089b2c8d259b8aeac3f9b3d7954b373ec1010ad5690debf933311c43e8ffd2e2153a499dea6542e3c7f04d16f73caa9aaeca97be2883130e9d71b7503fd77e11582a98893aae1fc69d87401131f9565bc2313de874790d69ae64a4284d8f831"
      ],
      "transaction": {
        "from": "0xb77c956f65aabec5e8e0ceeaa24a89ef2cc62d5a",
        "to": "0x4e4af2a21ebf62850fd99eb6253e1efbb56098cd",
        "gas": "0x4b61c",
        "value": "0x0",
        "input": "0xb82916cb0000000000000000000000000000000000000000000000000000000000000080000000000000000000000000000000000000000000000000000000000000026000000000000000000000000000000000000000000000000000000000000002a000000000000000000000000000000000000000000000000000000000000002c00000000000000000000000000000000000000000000000000000000000000001000000000000000000000000000000000000000000000000000000000000000000000000000000000000000000000000000000000000000000000000000000000000000000000000000000000000000000000000000000000000000000000000000000000000000000000000b77c956f65aabec5e8e0ceeaa24a89ef2cc62d5a00000000000000000000000000000000000000000000000000000000000000000000000000000000000000000000000000000000000000000000000000000000000000000000000000000000000000000000000000000000000000000000000000000000000000000000000000000000000000000000000000000000000001400000000000000000000000000000000000000000000000000000000000000160000000000000000000000000000000000000000000000000000000000000000000000000000000000000000000000000000000000000000000000000000000600000000000000000000000000000000000000000000000000000000000000020000000000000000000000000000000000000000000000000000000000000001d5468697320697320612073616d706c65206174746573746174696f6e2e00000000000000000000000000000000000000000000000000000000000000000000077573657231323300000000000000000000000000000000000000000000000000000000000000000000000000000000000000000000000000000000000000000000000000000000000000000000000000000000000000000000000000000001802897864a946c0d6c516626273dfaac3213470b8abfba95ad255c8c0d6dbe7cb50784518dbb2fed7650a9b7a3473bdccc4826e0b05158190ed0085378248e93120000000000000000000000000000000000000000000000000000000000000060000000000000000000000000000000000000000000000000000000000000010000fd8e4629017fef831c14aa134d9cf9fb1614cd18b24152f30c2e63b9550532051ee84c6d9c2395a88c32b7ca40824df1d92c96f9c3bbc43ed5e88855ef47780d77987f0d3aa536c97949b2ad25390ed89073d842b0b1b049ce198f604c94802dc2eb92b7966a81454c6f1420fb101bbf185fc5f30cb2162e95f8090a3ad1b9229c31d4c89b447e95a82a7b7bcc7209ecac924c018fd7f7429777401fa12fe81089b2c8d259b8aeac3f9b3d7954b373ec1010ad5690debf933311c43e8ffd2e2153a499dea6542e3c7f04d16f73caa9aaeca97be2883130e9d71b7503fd77e11582a98893aae1fc69d87401131f9565bc2313de874790d69ae64a4284d8f831",
        "nonce": "0x1",
        "chainId": "0x14a34"
      },
      "additionalContracts": [],
      "isFixedGasLimit": false
    }
  ],
  "receipts": [
    {
      "status": "0x1",
      "cumulativeGasUsed": "0x32ac05",
      "logs": [
        {
          "address": "0x4e4af2a21ebf62850fd99eb6253e1efbb56098cd",
          "topics": [
            "0x38b331f00373c8b0f9af5a4273ca1b91e894fec999bfa4ec787e8c90a5c8b05c"
          ],
          "data": "0x0000000000000000000000000000000000000000000000000000000000000842000000000000000000000000000000000000000000000000000000000000004000000000000000000000000000000000000000000000000000000000000000077573657231323300000000000000000000000000000000000000000000000000",
          "blockHash": "0x48a12780ccd65fd389ca5e21d43be1bd81289d9b30dab0ef999da9979cfba1b9",
          "blockNumber": "0xeda667",
          "transactionHash": "0xe11cb9ab42fa7beccc1e7b67da394ef166b0c34244cb074b5646f4c885b09ec4",
          "transactionIndex": "0x5",
          "logIndex": "0x22",
          "removed": false
        }
      ],
      "logsBloom": "0x20000000000000000000000000000000000000000000000000000000000000000000080000000000000000000000000000000000000000000000000000040000000000000000000000000000000000000000000000200000000000000000000000000000000000000000000000000000000000000000000000000000000000000000000000000000000000000000000000000000000000000000000000000000000000000000000000000000000000000000000000000000000000000000000000000000000000000000000000000000000000000000000000000000000000000000000000000000400004000000000000000000000000000000000000000000",
      "type": "0x2",
      "transactionHash": "0xe11cb9ab42fa7beccc1e7b67da394ef166b0c34244cb074b5646f4c885b09ec4",
      "transactionIndex": "0x5",
      "blockHash": "0x48a12780ccd65fd389ca5e21d43be1bd81289d9b30dab0ef999da9979cfba1b9",
      "blockNumber": "0xeda667",
      "gasUsed": "0x338b1",
      "effectiveGasPrice": "0x4a4",
      "from": "0xb77c956f65aabec5e8e0ceeaa24a89ef2cc62d5a",
      "to": "0x4e4af2a21ebf62850fd99eb6253e1efbb56098cd",
      "contractAddress": null,
      "l1BaseFeeScalar": "0x44d",
      "l1BlobBaseFee": "0x1",
      "l1BlobBaseFeeScalar": "0xa118b",
      "l1Fee": "0x1cc383ef9c",
      "l1GasPrice": "0x394bbcd3b",
      "l1GasUsed": "0x1c7f"
    }
  ],
  "libraries": [],
  "pending": [],
  "returns": {},
  "timestamp": 1726917556,
  "chain": 84532,
  "commit": "e78c04d"
}