{
  "transactions": [
    {
      "hash": "0x80b6e1a57dff570c4437edcf70cf71e5a4a991bfb87c27f73a4675694fa9e9e0",
      "transactionType": "CALL",
      "contractName": null,
      "contractAddress": "0x4e4af2a21ebf62850fd99eb6253e1efbb56098cd",
      "function": "attest((uint64,uint64,uint64,uint64,address,uint64,uint8,bool,bytes[],bytes),string,bytes,bytes)",
      "arguments": [
        "(1, 0, 0, 0, 0xB77C956F65AabEC5e8E0CeEAA24a89Ef2CC62D5A, 0, 0, false, [], 0x0000000000000000000000000000000000000000000000000000000000000020000000000000000000000000000000000000000000000000000000000000001d5468697320697320612073616d706c65206174746573746174696f6e2e000000)",
        "user123",
        "0x",
        "0x2897864a946c0d6c516626273dfaac3213470b8abfba95ad255c8c0d6dbe7cb50784518dbb2fed7650a9b7a3473bdccc4826e0b05158190ed0085378248e9312000000000000000000000000000000000000000000000000000000000000006000000000000000000000000000000000000000000000000000000000000000010000000000000000000000000000000000000000000000000000000000000000"
      ],
      "transaction": {
        "from": "0xb77c956f65aabec5e8e0ceeaa24a89ef2cc62d5a",
        "to": "0x4e4af2a21ebf62850fd99eb6253e1efbb56098cd",
        "gas": "0x45d76",
        "value": "0x0",
        "input": "0xb82916cb0000000000000000000000000000000000000000000000000000000000000080000000000000000000000000000000000000000000000000000000000000026000000000000000000000000000000000000000000000000000000000000002a000000000000000000000000000000000000000000000000000000000000002c00000000000000000000000000000000000000000000000000000000000000001000000000000000000000000000000000000000000000000000000000000000000000000000000000000000000000000000000000000000000000000000000000000000000000000000000000000000000000000000000000000000000000000000000000000000000000000b77c956f65aabec5e8e0ceeaa24a89ef2cc62d5a00000000000000000000000000000000000000000000000000000000000000000000000000000000000000000000000000000000000000000000000000000000000000000000000000000000000000000000000000000000000000000000000000000000000000000000000000000000000000000000000000000000000001400000000000000000000000000000000000000000000000000000000000000160000000000000000000000000000000000000000000000000000000000000000000000000000000000000000000000000000000000000000000000000000000600000000000000000000000000000000000000000000000000000000000000020000000000000000000000000000000000000000000000000000000000000001d5468697320697320612073616d706c65206174746573746174696f6e2e00000000000000000000000000000000000000000000000000000000000000000000077573657231323300000000000000000000000000000000000000000000000000000000000000000000000000000000000000000000000000000000000000000000000000000000000000000000000000000000000000000000000000000000a02897864a946c0d6c516626273dfaac3213470b8abfba95ad255c8c0d6dbe7cb50784518dbb2fed7650a9b7a3473bdccc4826e0b05158190ed0085378248e9312000000000000000000000000000000000000000000000000000000000000006000000000000000000000000000000000000000000000000000000000000000010000000000000000000000000000000000000000000000000000000000000000",
        "nonce": "0x2",
        "chainId": "0x14a34"
      },
      "additionalContracts": [],
      "isFixedGasLimit": false
    }
  ],
  "receipts": [
    {
      "status": "0x1",
      "cumulativeGasUsed": "0x17c28b",
      "logs": [
        {
          "address": "0x4e4af2a21ebf62850fd99eb6253e1efbb56098cd",
          "topics": [
            "0x38b331f00373c8b0f9af5a4273ca1b91e894fec999bfa4ec787e8c90a5c8b05c"
          ],
          "data": "0x0000000000000000000000000000000000000000000000000000000000000843000000000000000000000000000000000000000000000000000000000000004000000000000000000000000000000000000000000000000000000000000000077573657231323300000000000000000000000000000000000000000000000000",
          "blockHash": "0xe0f0edb4bb3db1e9ce64b933ce786566c2900702f1fe102f1fa745ee0b8a9558",
          "blockNumber": "0xeda6c4",
          "transactionHash": "0x80b6e1a57dff570c4437edcf70cf71e5a4a991bfb87c27f73a4675694fa9e9e0",
          "transactionIndex": "0x5",
          "logIndex": "0xb",
          "removed": false
        }
      ],
      "logsBloom": "0x20000000000000000000000000000000000000000000000000000000000000000000080000000000000000000000000000000000000000000000000000040000000000000000000000000000000000000000000000200000000000000000000000000000000000000000000000000000000000000000000000000000000000000000000000000000000000000000000000000000000000000000000000000000000000000000000000000000000000000000000000000000000000000000000000000000000000000000000000000000000000000000000000000000000000000000000000000000400004000000000000000000000000000000000000000000",
      "type": "0x2",
      "transactionHash": "0x80b6e1a57dff570c4437edcf70cf71e5a4a991bfb87c27f73a4675694fa9e9e0",
      "transactionIndex": "0x5",
      "blockHash": "0xe0f0edb4bb3db1e9ce64b933ce786566c2900702f1fe102f1fa745ee0b8a9558",
      "blockNumber": "0xeda6c4",
      "gasUsed": "0x32906",
      "effectiveGasPrice": "0x187b3",
      "from": "0xb77c956f65aabec5e8e0ceeaa24a89ef2cc62d5a",
      "to": "0x4e4af2a21ebf62850fd99eb6253e1efbb56098cd",
      "contractAddress": null,
      "l1BaseFeeScalar": "0x44d",
      "l1BlobBaseFee": "0x1",
      "l1BlobBaseFeeScalar": "0xa118b",
      "l1Fee": "0xdf50a3d74",
      "l1GasPrice": "0x35885dc22",
      "l1GasUsed": "0xecc"
    }
  ],
  "libraries": [],
  "pending": [],
  "returns": {},
  "timestamp": 1726917742,
  "chain": 84532,
  "commit": "e78c04d"
}